{
  "contractName": "hangout_music",
  "abi": [
    {
      "anonymous": false,
      "inputs": [
        {
          "indexed": false,
          "internalType": "string",
          "name": "Content_Type",
          "type": "string"
        },
        {
          "indexed": true,
          "internalType": "address",
          "name": "from",
          "type": "address"
        },
        {
          "indexed": true,
          "internalType": "string",
          "name": "book_name",
          "type": "string"
        },
        {
          "indexed": true,
          "internalType": "uint256",
          "name": "amount",
          "type": "uint256"
        }
      ],
      "name": "passBook",
      "type": "event"
    },
    {
      "inputs": [
        {
          "internalType": "address",
          "name": "_address",
          "type": "address"
        }
      ],
      "name": "addOwner",
      "outputs": [],
      "stateMutability": "nonpayable",
      "type": "function"
    },
    {
      "inputs": [
        {
          "internalType": "string",
          "name": "",
          "type": "string"
        }
      ],
      "name": "music_list",
      "outputs": [
        {
          "internalType": "string",
          "name": "link",
          "type": "string"
        },
        {
          "internalType": "uint256",
          "name": "rent_amount",
          "type": "uint256"
        },
        {
          "internalType": "uint256",
          "name": "purchase_amount",
          "type": "uint256"
        }
      ],
      "stateMutability": "view",
      "type": "function",
      "constant": true
    },
    {
      "inputs": [
        {
          "internalType": "address",
          "name": "",
          "type": "address"
        }
      ],
      "name": "owner",
      "outputs": [
        {
          "internalType": "uint256",
          "name": "",
          "type": "uint256"
        }
      ],
      "stateMutability": "view",
      "type": "function",
      "constant": true
    },
    {
      "inputs": [
        {
          "internalType": "string",
          "name": "_name",
          "type": "string"
        },
        {
          "internalType": "string",
          "name": "_link",
          "type": "string"
        },
        {
          "internalType": "uint256",
          "name": "_rent_amount",
          "type": "uint256"
        },
        {
          "internalType": "uint256",
          "name": "_purchase_amount",
          "type": "uint256"
        }
      ],
      "name": "addContent",
      "outputs": [],
      "stateMutability": "nonpayable",
      "type": "function"
    },
    {
      "inputs": [
        {
          "internalType": "string",
          "name": "BN",
          "type": "string"
        }
      ],
      "name": "check_content_avaibility",
      "outputs": [
        {
          "components": [
            {
              "internalType": "string",
              "name": "link",
              "type": "string"
            },
            {
              "internalType": "uint256",
              "name": "rent_amount",
              "type": "uint256"
            },
            {
              "internalType": "uint256",
              "name": "purchase_amount",
              "type": "uint256"
            }
          ],
          "internalType": "struct hangout_content.content_info",
          "name": "hh",
          "type": "tuple"
        }
      ],
      "stateMutability": "view",
      "type": "function",
      "constant": true
    },
    {
      "inputs": [
        {
          "internalType": "string",
          "name": "_name",
          "type": "string"
        }
      ],
      "name": "purchase_content",
      "outputs": [
        {
          "internalType": "string",
          "name": "",
          "type": "string"
        }
      ],
      "stateMutability": "payable",
      "type": "function",
      "payable": true
    },
    {
      "inputs": [
        {
          "internalType": "string",
          "name": "_name",
          "type": "string"
        }
      ],
      "name": "rent_content",
      "outputs": [
        {
          "internalType": "string",
          "name": "",
          "type": "string"
        }
      ],
      "stateMutability": "payable",
      "type": "function",
      "payable": true
    }
  ],
  "bytecode": "0x608060405234801561001057600080fd5b5060016000803373ffffffffffffffffffffffffffffffffffffffff1673ffffffffffffffffffffffffffffffffffffffff168152602001908152602001600020819055506111c3806100646000396000f3fe6080604052600436106100705760003560e01c80637065cb481161004e5780637065cb481461012e57806389160f5414610157578063ce4bd92b14610180578063ed4b4e08146101b057610070565b80631c2e6be814610075578063495c2dc7146100b4578063666e1b39146100f1575b600080fd5b34801561008157600080fd5b5061009c60048036038101906100979190610b1b565b6101e0565b6040516100ab93929190610c05565b60405180910390f35b3480156100c057600080fd5b506100db60048036038101906100d69190610b1b565b6102a8565b6040516100e89190610cec565b60405180910390f35b3480156100fd57600080fd5b5061011860048036038101906101139190610d6c565b6103ea565b6040516101259190610d99565b60405180910390f35b34801561013a57600080fd5b5061015560048036038101906101509190610d6c565b610402565b005b34801561016357600080fd5b5061017e60048036038101906101799190610de0565b6104ca565b005b61019a60048036038101906101959190610b1b565b6105c5565b6040516101a79190610e7f565b60405180910390f35b6101ca60048036038101906101c59190610b1b565b610761565b6040516101d79190610e7f565b60405180910390f35b60018180516020810182018051848252602083016020850120818352809550505050505060009150905080600001805461021990610ed0565b80601f016020809104026020016040519081016040528092919081815260200182805461024590610ed0565b80156102925780601f1061026757610100808354040283529160200191610292565b820191906000526020600020905b81548152906001019060200180831161027557829003601f168201915b5050505050908060010154908060020154905083565b6102b06108fd565b60006001836040516102c29190610f3d565b90815260200160405180910390206001015403610314576040517f08c379a000000000000000000000000000000000000000000000000000000000815260040161030b90610fa0565b60405180910390fd5b6001826040516103249190610f3d565b908152602001604051809103902060405180606001604052908160008201805461034d90610ed0565b80601f016020809104026020016040519081016040528092919081815260200182805461037990610ed0565b80156103c65780601f1061039b576101008083540402835291602001916103c6565b820191906000526020600020905b8154815290600101906020018083116103a957829003601f168201915b50505050508152602001600182015481526020016002820154815250509050919050565b60006020528060005260406000206000915090505481565b60008060003373ffffffffffffffffffffffffffffffffffffffff1673ffffffffffffffffffffffffffffffffffffffff1681526020019081526020016000205403610483576040517f08c379a000000000000000000000000000000000000000000000000000000000815260040161047a9061100c565b60405180910390fd5b60016000808373ffffffffffffffffffffffffffffffffffffffff1673ffffffffffffffffffffffffffffffffffffffff1681526020019081526020016000208190555050565b60008060003373ffffffffffffffffffffffffffffffffffffffff1673ffffffffffffffffffffffffffffffffffffffff168152602001908152602001600020540361054b576040517f08c379a00000000000000000000000000000000000000000000000000000000081526004016105429061100c565b60405180910390fd5b600060018560405161055d9190610f3d565b908152602001604051809103902090508381600001908051906020019061058592919061091e565b50670de0b6b3a76400008361059a919061105b565b8160010181905550670de0b6b3a7640000826105b6919061105b565b81600201819055505050505050565b60606001826040516105d79190610f3d565b90815260200160405180910390206002015434811461062b576040517f08c379a000000000000000000000000000000000000000000000000000000000815260040161062290611101565b60405180910390fd5b60018360405161063b9190610f3d565b9081526020016040518091039020600201548360405161065b9190610f3d565b60405180910390203373ffffffffffffffffffffffffffffffffffffffff167fee76a74b2c37b15fbd7210aeb1244c5fdec41499cc7c9df6d0c17c1f96afd2346040516106a79061116d565b60405180910390a46001836040516106bf9190610f3d565b908152602001604051809103902060000180546106db90610ed0565b80601f016020809104026020016040519081016040528092919081815260200182805461070790610ed0565b80156107545780601f1061072957610100808354040283529160200191610754565b820191906000526020600020905b81548152906001019060200180831161073757829003601f168201915b5050505050915050919050565b60606001826040516107739190610f3d565b9081526020016040518091039020600101543481146107c7576040517f08c379a00000000000000000000000000000000000000000000000000000000081526004016107be90611101565b60405180910390fd5b6001836040516107d79190610f3d565b908152602001604051809103902060010154836040516107f79190610f3d565b60405180910390203373ffffffffffffffffffffffffffffffffffffffff167fee76a74b2c37b15fbd7210aeb1244c5fdec41499cc7c9df6d0c17c1f96afd2346040516108439061116d565b60405180910390a460018360405161085b9190610f3d565b9081526020016040518091039020600001805461087790610ed0565b80601f01602080910402602001604051908101604052809291908181526020018280546108a390610ed0565b80156108f05780601f106108c5576101008083540402835291602001916108f0565b820191906000526020600020905b8154815290600101906020018083116108d357829003601f168201915b5050505050915050919050565b60405180606001604052806060815260200160008152602001600081525090565b82805461092a90610ed0565b90600052602060002090601f01602090048101928261094c5760008555610993565b82601f1061096557805160ff1916838001178555610993565b82800160010185558215610993579182015b82811115610992578251825591602001919060010190610977565b5b5090506109a091906109a4565b5090565b5b808211156109bd5760008160009055506001016109a5565b5090565b6000604051905090565b600080fd5b600080fd5b600080fd5b600080fd5b6000601f19601f8301169050919050565b7f4e487b7100000000000000000000000000000000000000000000000000000000600052604160045260246000fd5b610a28826109df565b810181811067ffffffffffffffff82111715610a4757610a466109f0565b5b80604052505050565b6000610a5a6109c1565b9050610a668282610a1f565b919050565b600067ffffffffffffffff821115610a8657610a856109f0565b5b610a8f826109df565b9050602081019050919050565b82818337600083830152505050565b6000610abe610ab984610a6b565b610a50565b905082815260208101848484011115610ada57610ad96109da565b5b610ae5848285610a9c565b509392505050565b600082601f830112610b0257610b016109d5565b5b8135610b12848260208601610aab565b91505092915050565b600060208284031215610b3157610b306109cb565b5b600082013567ffffffffffffffff811115610b4f57610b4e6109d0565b5b610b5b84828501610aed565b91505092915050565b600081519050919050565b600082825260208201905092915050565b60005b83811015610b9e578082015181840152602081019050610b83565b83811115610bad576000848401525b50505050565b6000610bbe82610b64565b610bc88185610b6f565b9350610bd8818560208601610b80565b610be1816109df565b840191505092915050565b6000819050919050565b610bff81610bec565b82525050565b60006060820190508181036000830152610c1f8186610bb3565b9050610c2e6020830185610bf6565b610c3b6040830184610bf6565b949350505050565b600082825260208201905092915050565b6000610c5f82610b64565b610c698185610c43565b9350610c79818560208601610b80565b610c82816109df565b840191505092915050565b610c9681610bec565b82525050565b60006060830160008301518482036000860152610cb98282610c54565b9150506020830151610cce6020860182610c8d565b506040830151610ce16040860182610c8d565b508091505092915050565b60006020820190508181036000830152610d068184610c9c565b905092915050565b600073ffffffffffffffffffffffffffffffffffffffff82169050919050565b6000610d3982610d0e565b9050919050565b610d4981610d2e565b8114610d5457600080fd5b50565b600081359050610d6681610d40565b92915050565b600060208284031215610d8257610d816109cb565b5b6000610d9084828501610d57565b91505092915050565b6000602082019050610dae6000830184610bf6565b92915050565b610dbd81610bec565b8114610dc857600080fd5b50565b600081359050610dda81610db4565b92915050565b60008060008060808587031215610dfa57610df96109cb565b5b600085013567ffffffffffffffff811115610e1857610e176109d0565b5b610e2487828801610aed565b945050602085013567ffffffffffffffff811115610e4557610e446109d0565b5b610e5187828801610aed565b9350506040610e6287828801610dcb565b9250506060610e7387828801610dcb565b91505092959194509250565b60006020820190508181036000830152610e998184610bb3565b905092915050565b7f4e487b7100000000000000000000000000000000000000000000000000000000600052602260045260246000fd5b60006002820490506001821680610ee857607f821691505b602082108103610efb57610efa610ea1565b5b50919050565b600081905092915050565b6000610f1782610b64565b610f218185610f01565b9350610f31818560208601610b80565b80840191505092915050565b6000610f498284610f0c565b915081905092915050565b7f6d75736963204e6f7420417661696c61626c6500000000000000000000000000600082015250565b6000610f8a601383610b6f565b9150610f9582610f54565b602082019050919050565b60006020820190508181036000830152610fb981610f7d565b9050919050565b7f4e6f74205065726d697474656400000000000000000000000000000000000000600082015250565b6000610ff6600d83610b6f565b915061100182610fc0565b602082019050919050565b6000602082019050818103600083015261102581610fe9565b9050919050565b7f4e487b7100000000000000000000000000000000000000000000000000000000600052601160045260246000fd5b600061106682610bec565b915061107183610bec565b9250817fffffffffffffffffffffffffffffffffffffffffffffffffffffffffffffffff04831182151516156110aa576110a961102c565b5b828202905092915050565b7f416d6f756e742070616964206973206e6f742076616c69640000000000000000600082015250565b60006110eb601883610b6f565b91506110f6826110b5565b602082019050919050565b6000602082019050818103600083015261111a816110de565b9050919050565b7f4d55534943000000000000000000000000000000000000000000000000000000600082015250565b6000611157600583610b6f565b915061116282611121565b602082019050919050565b600060208201905081810360008301526111868161114a565b905091905056fea264697066735822122058fa4f7a6daaf6c7f5bbac2aa565a94b63219ee2d29682aa9f40975cbf593e9864736f6c634300080e0033",
  "immutableReferences": {},
  "source": "// SPDX-License-Identifier: UNLICENSED\npragma solidity ^0.8.0;\nimport \"./main.sol\";\n// hangout\n// can add erc721 to give a proof of ownership certificate\n\ncontract hangout_music is hangout_content{\n    // mapping (address=>uint) internal map_passBook;\n    mapping (string => content_info) public music_list;\n    function addContent(string memory _name,string memory _link,uint _rent_amount,uint _purchase_amount) public override checkOwner{\n       content_info storage music= music_list[_name];\n       music.link=_link;\n       music.rent_amount=_rent_amount *1000000000000000000;\n       music.purchase_amount=_purchase_amount *1000000000000000000;\n    }\n    function check_content_avaibility(string memory BN) public view override returns (content_info memory hh){\n        require ((music_list[BN]).rent_amount!=0,\"music Not Available\");\n        return music_list[BN];\n    }\n    function purchase_content(string memory _name) public payable override  checkEther((music_list[_name]).purchase_amount) returns(string memory){\n        emit passBook(\"MUSIC\",msg.sender,_name,(music_list[_name]).purchase_amount);\n        // map_passmusic[msg.sender]=(music_list[_name]).purchase_amount;\n        return (music_list[_name]).link;\n    }\n    function rent_content(string memory _name) public payable override checkEther((music_list[_name]).rent_amount) returns(string memory){\n        emit passBook(\"MUSIC\",msg.sender,_name,(music_list[_name]).rent_amount);\n        // map_passmusic[msg.sender]=(music_list[_name]).purchase_amount;\n        return (music_list[_name]).link;// will use CAT function of IPFS \n    }\n}",
  "sourcePath": "/Users/yaksheshgupta/Desktop/Summer_Program_IET/contracts/music.sol",
  "compiler": {
    "name": "solc",
    "version": "0.8.14+commit.80d49f37.Emscripten.clang"
  },
  "schemaVersion": "3.4.7",
  "updatedAt": "2022-08-01T11:27:48.011Z",
  "networkType": "ethereum",
  "devdoc": {
    "kind": "dev",
    "methods": {},
    "version": 1
  },
  "userdoc": {
    "kind": "user",
    "methods": {},
    "version": 1
  }
}