{
  "contractName": "hangout_book",
  "abi": [
    {
      "anonymous": false,
      "inputs": [
        {
          "indexed": false,
          "internalType": "string",
          "name": "Content_Type",
          "type": "string"
        },
        {
          "indexed": true,
          "internalType": "address",
          "name": "from",
          "type": "address"
        },
        {
          "indexed": true,
          "internalType": "string",
          "name": "book_name",
          "type": "string"
        },
        {
          "indexed": true,
          "internalType": "uint256",
          "name": "amount",
          "type": "uint256"
        }
      ],
      "name": "passBook",
      "type": "event"
    },
    {
      "inputs": [
        {
          "internalType": "address",
          "name": "_address",
          "type": "address"
        }
      ],
      "name": "addOwner",
      "outputs": [],
      "stateMutability": "nonpayable",
      "type": "function"
    },
    {
      "inputs": [
        {
          "internalType": "string",
          "name": "",
          "type": "string"
        }
      ],
      "name": "book_list",
      "outputs": [
        {
          "internalType": "string",
          "name": "link",
          "type": "string"
        },
        {
          "internalType": "uint256",
          "name": "rent_amount",
          "type": "uint256"
        },
        {
          "internalType": "uint256",
          "name": "purchase_amount",
          "type": "uint256"
        }
      ],
      "stateMutability": "view",
      "type": "function",
      "constant": true
    },
    {
      "inputs": [
        {
          "internalType": "address",
          "name": "",
          "type": "address"
        }
      ],
      "name": "owner",
      "outputs": [
        {
          "internalType": "uint256",
          "name": "",
          "type": "uint256"
        }
      ],
      "stateMutability": "view",
      "type": "function",
      "constant": true
    },
    {
      "inputs": [
        {
          "internalType": "string",
          "name": "_name",
          "type": "string"
        },
        {
          "internalType": "string",
          "name": "_link",
          "type": "string"
        },
        {
          "internalType": "uint256",
          "name": "_rent_amount",
          "type": "uint256"
        },
        {
          "internalType": "uint256",
          "name": "_purchase_amount",
          "type": "uint256"
        }
      ],
      "name": "addContent",
      "outputs": [],
      "stateMutability": "nonpayable",
      "type": "function"
    },
    {
      "inputs": [
        {
          "internalType": "string",
          "name": "BN",
          "type": "string"
        }
      ],
      "name": "check_content_avaibility",
      "outputs": [
        {
          "components": [
            {
              "internalType": "string",
              "name": "link",
              "type": "string"
            },
            {
              "internalType": "uint256",
              "name": "rent_amount",
              "type": "uint256"
            },
            {
              "internalType": "uint256",
              "name": "purchase_amount",
              "type": "uint256"
            }
          ],
          "internalType": "struct hangout_content.content_info",
          "name": "hh",
          "type": "tuple"
        }
      ],
      "stateMutability": "view",
      "type": "function",
      "constant": true
    },
    {
      "inputs": [
        {
          "internalType": "string",
          "name": "_name",
          "type": "string"
        }
      ],
      "name": "purchase_content",
      "outputs": [
        {
          "internalType": "string",
          "name": "",
          "type": "string"
        }
      ],
      "stateMutability": "payable",
      "type": "function",
      "payable": true
    },
    {
      "inputs": [
        {
          "internalType": "string",
          "name": "_name",
          "type": "string"
        }
      ],
      "name": "rent_content",
      "outputs": [
        {
          "internalType": "string",
          "name": "",
          "type": "string"
        }
      ],
      "stateMutability": "payable",
      "type": "function",
      "payable": true
    }
  ],
  "bytecode": "0x608060405234801561001057600080fd5b5060016000803373ffffffffffffffffffffffffffffffffffffffff1673ffffffffffffffffffffffffffffffffffffffff168152602001908152602001600020819055506111c3806100646000396000f3fe6080604052600436106100705760003560e01c806389160f541161004e57806389160f5414610118578063ad1040ef14610141578063ce4bd92b14610180578063ed4b4e08146101b057610070565b8063495c2dc714610075578063666e1b39146100b25780637065cb48146100ef575b600080fd5b34801561008157600080fd5b5061009c60048036038101906100979190610b1b565b6101e0565b6040516100a99190610c55565b60405180910390f35b3480156100be57600080fd5b506100d960048036038101906100d49190610cd5565b610322565b6040516100e69190610d11565b60405180910390f35b3480156100fb57600080fd5b5061011660048036038101906101119190610cd5565b61033a565b005b34801561012457600080fd5b5061013f600480360381019061013a9190610d58565b610402565b005b34801561014d57600080fd5b5061016860048036038101906101639190610b1b565b6104fd565b60405161017793929190610e41565b60405180910390f35b61019a60048036038101906101959190610b1b565b6105c5565b6040516101a79190610e7f565b60405180910390f35b6101ca60048036038101906101c59190610b1b565b610761565b6040516101d79190610e7f565b60405180910390f35b6101e86108fd565b60006001836040516101fa9190610edd565b9081526020016040518091039020600101540361024c576040517f08c379a000000000000000000000000000000000000000000000000000000000815260040161024390610f40565b60405180910390fd5b60018260405161025c9190610edd565b908152602001604051809103902060405180606001604052908160008201805461028590610f8f565b80601f01602080910402602001604051908101604052809291908181526020018280546102b190610f8f565b80156102fe5780601f106102d3576101008083540402835291602001916102fe565b820191906000526020600020905b8154815290600101906020018083116102e157829003601f168201915b50505050508152602001600182015481526020016002820154815250509050919050565b60006020528060005260406000206000915090505481565b60008060003373ffffffffffffffffffffffffffffffffffffffff1673ffffffffffffffffffffffffffffffffffffffff16815260200190815260200160002054036103bb576040517f08c379a00000000000000000000000000000000000000000000000000000000081526004016103b29061100c565b60405180910390fd5b60016000808373ffffffffffffffffffffffffffffffffffffffff1673ffffffffffffffffffffffffffffffffffffffff1681526020019081526020016000208190555050565b60008060003373ffffffffffffffffffffffffffffffffffffffff1673ffffffffffffffffffffffffffffffffffffffff1681526020019081526020016000205403610483576040517f08c379a000000000000000000000000000000000000000000000000000000000815260040161047a9061100c565b60405180910390fd5b60006001856040516104959190610edd565b90815260200160405180910390209050838160000190805190602001906104bd92919061091e565b50670de0b6b3a7640000836104d2919061105b565b8160010181905550670de0b6b3a7640000826104ee919061105b565b81600201819055505050505050565b60018180516020810182018051848252602083016020850120818352809550505050505060009150905080600001805461053690610f8f565b80601f016020809104026020016040519081016040528092919081815260200182805461056290610f8f565b80156105af5780601f10610584576101008083540402835291602001916105af565b820191906000526020600020905b81548152906001019060200180831161059257829003601f168201915b5050505050908060010154908060020154905083565b60606001826040516105d79190610edd565b90815260200160405180910390206002015434811461062b576040517f08c379a000000000000000000000000000000000000000000000000000000000815260040161062290611101565b60405180910390fd5b60018360405161063b9190610edd565b9081526020016040518091039020600201548360405161065b9190610edd565b60405180910390203373ffffffffffffffffffffffffffffffffffffffff167fee76a74b2c37b15fbd7210aeb1244c5fdec41499cc7c9df6d0c17c1f96afd2346040516106a79061116d565b60405180910390a46001836040516106bf9190610edd565b908152602001604051809103902060000180546106db90610f8f565b80601f016020809104026020016040519081016040528092919081815260200182805461070790610f8f565b80156107545780601f1061072957610100808354040283529160200191610754565b820191906000526020600020905b81548152906001019060200180831161073757829003601f168201915b5050505050915050919050565b60606001826040516107739190610edd565b9081526020016040518091039020600101543481146107c7576040517f08c379a00000000000000000000000000000000000000000000000000000000081526004016107be90611101565b60405180910390fd5b6001836040516107d79190610edd565b908152602001604051809103902060010154836040516107f79190610edd565b60405180910390203373ffffffffffffffffffffffffffffffffffffffff167fee76a74b2c37b15fbd7210aeb1244c5fdec41499cc7c9df6d0c17c1f96afd2346040516108439061116d565b60405180910390a460018360405161085b9190610edd565b9081526020016040518091039020600001805461087790610f8f565b80601f01602080910402602001604051908101604052809291908181526020018280546108a390610f8f565b80156108f05780601f106108c5576101008083540402835291602001916108f0565b820191906000526020600020905b8154815290600101906020018083116108d357829003601f168201915b5050505050915050919050565b60405180606001604052806060815260200160008152602001600081525090565b82805461092a90610f8f565b90600052602060002090601f01602090048101928261094c5760008555610993565b82601f1061096557805160ff1916838001178555610993565b82800160010185558215610993579182015b82811115610992578251825591602001919060010190610977565b5b5090506109a091906109a4565b5090565b5b808211156109bd5760008160009055506001016109a5565b5090565b6000604051905090565b600080fd5b600080fd5b600080fd5b600080fd5b6000601f19601f8301169050919050565b7f4e487b7100000000000000000000000000000000000000000000000000000000600052604160045260246000fd5b610a28826109df565b810181811067ffffffffffffffff82111715610a4757610a466109f0565b5b80604052505050565b6000610a5a6109c1565b9050610a668282610a1f565b919050565b600067ffffffffffffffff821115610a8657610a856109f0565b5b610a8f826109df565b9050602081019050919050565b82818337600083830152505050565b6000610abe610ab984610a6b565b610a50565b905082815260208101848484011115610ada57610ad96109da565b5b610ae5848285610a9c565b509392505050565b600082601f830112610b0257610b016109d5565b5b8135610b12848260208601610aab565b91505092915050565b600060208284031215610b3157610b306109cb565b5b600082013567ffffffffffffffff811115610b4f57610b4e6109d0565b5b610b5b84828501610aed565b91505092915050565b600081519050919050565b600082825260208201905092915050565b60005b83811015610b9e578082015181840152602081019050610b83565b83811115610bad576000848401525b50505050565b6000610bbe82610b64565b610bc88185610b6f565b9350610bd8818560208601610b80565b610be1816109df565b840191505092915050565b6000819050919050565b610bff81610bec565b82525050565b60006060830160008301518482036000860152610c228282610bb3565b9150506020830151610c376020860182610bf6565b506040830151610c4a6040860182610bf6565b508091505092915050565b60006020820190508181036000830152610c6f8184610c05565b905092915050565b600073ffffffffffffffffffffffffffffffffffffffff82169050919050565b6000610ca282610c77565b9050919050565b610cb281610c97565b8114610cbd57600080fd5b50565b600081359050610ccf81610ca9565b92915050565b600060208284031215610ceb57610cea6109cb565b5b6000610cf984828501610cc0565b91505092915050565b610d0b81610bec565b82525050565b6000602082019050610d266000830184610d02565b92915050565b610d3581610bec565b8114610d4057600080fd5b50565b600081359050610d5281610d2c565b92915050565b60008060008060808587031215610d7257610d716109cb565b5b600085013567ffffffffffffffff811115610d9057610d8f6109d0565b5b610d9c87828801610aed565b945050602085013567ffffffffffffffff811115610dbd57610dbc6109d0565b5b610dc987828801610aed565b9350506040610dda87828801610d43565b9250506060610deb87828801610d43565b91505092959194509250565b600082825260208201905092915050565b6000610e1382610b64565b610e1d8185610df7565b9350610e2d818560208601610b80565b610e36816109df565b840191505092915050565b60006060820190508181036000830152610e5b8186610e08565b9050610e6a6020830185610d02565b610e776040830184610d02565b949350505050565b60006020820190508181036000830152610e998184610e08565b905092915050565b600081905092915050565b6000610eb782610b64565b610ec18185610ea1565b9350610ed1818560208601610b80565b80840191505092915050565b6000610ee98284610eac565b915081905092915050565b7f426f6f6b204e6f7420417661696c61626c650000000000000000000000000000600082015250565b6000610f2a601283610df7565b9150610f3582610ef4565b602082019050919050565b60006020820190508181036000830152610f5981610f1d565b9050919050565b7f4e487b7100000000000000000000000000000000000000000000000000000000600052602260045260246000fd5b60006002820490506001821680610fa757607f821691505b602082108103610fba57610fb9610f60565b5b50919050565b7f4e6f74205065726d697474656400000000000000000000000000000000000000600082015250565b6000610ff6600d83610df7565b915061100182610fc0565b602082019050919050565b6000602082019050818103600083015261102581610fe9565b9050919050565b7f4e487b7100000000000000000000000000000000000000000000000000000000600052601160045260246000fd5b600061106682610bec565b915061107183610bec565b9250817fffffffffffffffffffffffffffffffffffffffffffffffffffffffffffffffff04831182151516156110aa576110a961102c565b5b828202905092915050565b7f416d6f756e742070616964206973206e6f742076616c69640000000000000000600082015250565b60006110eb601883610df7565b91506110f6826110b5565b602082019050919050565b6000602082019050818103600083015261111a816110de565b9050919050565b7f424f4f4b00000000000000000000000000000000000000000000000000000000600082015250565b6000611157600483610df7565b915061116282611121565b602082019050919050565b600060208201905081810360008301526111868161114a565b905091905056fea264697066735822122073346df6d393522ed7005f3d90d42bb5f96802d6bf5e48e16af0726ea4bf64e364736f6c634300080e0033",
  "immutableReferences": {},
  "source": "// SPDX-License-Identifier: UNLICENSED\npragma solidity ^0.8.0;\nimport \"./main.sol\";\n// hangout\ncontract hangout_book is hangout_content{\n    // mapping (address=>uint) internal map_passBook;\n    mapping (string => content_info) public book_list;\n    function addContent(string memory _name,string memory _link,uint _rent_amount,uint _purchase_amount) public override checkOwner{\n       content_info storage book= book_list[_name];\n       book.link=_link;\n       book.rent_amount=_rent_amount *1000000000000000000;\n       book.purchase_amount=_purchase_amount *1000000000000000000;\n    }\n    function check_content_avaibility(string memory BN) public view override returns (content_info memory hh){\n        require ((book_list[BN]).rent_amount!=0,\"Book Not Available\");\n        return book_list[BN];\n    }\n    function purchase_content(string memory _name) public payable override  checkEther((book_list[_name]).purchase_amount) returns(string memory){\n        emit passBook(\"BOOK\",msg.sender,_name,(book_list[_name]).purchase_amount);\n        // map_passBook[msg.sender]=(book_list[_name]).purchase_amount;\n        return (book_list[_name]).link;\n    }\n    function rent_content(string memory _name) public payable override checkEther((book_list[_name]).rent_amount) returns(string memory){\n        emit passBook(\"BOOK\",msg.sender,_name,(book_list[_name]).rent_amount);\n        // map_passBook[msg.sender]=(book_list[_name]).purchase_amount;\n        return (book_list[_name]).link;// will use CAT function of IPFS \n    }\n}",
  "sourcePath": "/Users/yaksheshgupta/Desktop/Summer_Program_IET/contracts/book.sol",
  "compiler": {
    "name": "solc",
    "version": "0.8.14+commit.80d49f37.Emscripten.clang"
  },
  "schemaVersion": "3.4.7",
  "updatedAt": "2022-08-01T11:27:48.004Z",
  "networkType": "ethereum",
  "devdoc": {
    "kind": "dev",
    "methods": {},
    "version": 1
  },
  "userdoc": {
    "kind": "user",
    "methods": {},
    "version": 1
  }
}